:100000000C9475000C9492000C9492000C94920045
:100010000C9492000C9492000C9492000C94920018
:100020000C9492000C9492000C9492000C94920008
:100030000C9492000C9492000C9492000C949200F8
:100040000C9492000C9492000C94C7000C94F00055
:100050000C9492000C9492000C9492000C949200D8
:100060000C9492000C94920007634236B79BD8A779
:100070001A39685618AEBAAB558C1D3CB7CC5763CD
:10008000BD6DEDFD753EF6177231BF000000803F7B
:1000900008000000BE922449123EABAAAA2ABECD97
:1000A000CCCC4C3E00000080BEABAAAAAA3E000009
:1000B0000000BF000000803F000000000008417801
:1000C000D3BB4387D1133D190E3CC3BD4282AD2B38
:1000D0003E68EC8276BED98FE1A93E4C80EFFFBE30
:1000E00001C4FF7F3F000000000011241FBECFEFBE
:1000F000D8E0DEBFCDBF11E0A0E0B1E0EAE8F3E177
:1001000002C005900D92A834B107D9F721E0A8E408
:10011000B1E001C01D92AF3AB207E1F70E9423059A
:100120000C94C3090C940000EF92FF920F931F935D
:10013000CF93DF93CDB7DEB72A970FB6F894DEBF23
:100140000FBECDBF7A018B010E94640180E091E077
:100150000E9464012AE0AE014F5F5F4FB701C80102
:100160000E948209CE0101960E94640189E091E01B
:100170000E9464012A960FB6F894DEBF0FBECDBF71
:10018000DF91CF911F910F91FF90EF9008952F93E2
:100190002FB72F938F939F93EF93FF938091C0007E
:1001A0009091C600E0914A01EF5FEF712091490103
:1001B0002E17A1F08C71E0934A01F0E0E35BFE4F53
:1001C000908390914801892B80934801FF91EF9192
:1001D0009F918F912F912FBF2F91189582E0F1CF92
:1001E0008F938FB78F939F93EF93FF9390914C01D1
:1001F00080914B01981799F0E0914B01EF5FEF71FF
:10020000E0934B01F0E0E359FE4F80818093C600FC
:10021000FF91EF919F918F918FBF8F911895809152
:10022000C1008F7D8093C100F3CF9C0110924C01DF
:1002300010924B0110924A011092490197FF03C09E
:1002400082E08093C000832F80788093C500209344
:10025000C40088E98093C10086E08093C2000895BD
:1002600090914A01809149019817B1F0909149010C
:100270009F5F9F71E92FF0E0E35BFE4F308120919B
:1002800048019093490110924801822F90E0982FE5
:100290008827830F911D089580E091E00895909143
:1002A0004C019F5F9F7120914B012917E1F3E92FCA
:1002B000F0E0E359FE4F808390934C018091C100A0
:1002C00080628093C1000895CF93DF93EC01899100
:1002D000811103C0DF91CF9108950E944F01F7CFA4
:1002E000CF93DF93EC01FE0184912196811103C02D
:1002F000DF91CF9108950E944F01F5CFCF93DF9307
:10030000D82FC62F8EEE0E94CD048D2F0E94FE04A2
:100310008C2F0E94FE04DF91CF910C94F604AF92D3
:10032000BF92CF92DF92EF92FF920F931F93CF93E2
:10033000DF93D82F7B01C42F8EEE0E94CD048D2F2A
:100340000E94FE048FEE0E94F404D0E010E000E072
:100350005E0181E0A81AB108C017D10761F4DF91EE
:10036000CF911F910F91FF90EF90DF90CF90BF90B2
:10037000AF900C94F6046701C00ED11EA016B10612
:1003800039F40E941905F60180830F5F1F4FE4CFF7
:100390000E940F05F8CFCF93DF930F92CDB7DEB752
:1003A0000E94A40485E38A95F1F70000198241E0D8
:1003B000BE016F5F7F4F80ED0E948F01898188357C
:1003C000C9F4EDE8F1E08AE1DF011D928A95E9F7D1
:1003D0004AE1BF0188E80E948F0160E185EF0E9439
:1003E0007E0167E584EF0E947E0181E00F90DF913E
:1003F000CF91089580E0FACFCF93DF930F92CDB7DE
:10040000DEB741E0BE016F5F7F4F83EF0E948F0137
:1004100089810F90DF91CF91089524E0629FB00110
:1004200011246C7120E2829FC0011124682B43705B
:10043000642B84EF0C947E0124E0629FB0011124B0
:100440006C7120E2829FC0011124682B4170642BE3
:1004500085EF0C947E018F929F92AF92BF92CF92C4
:10046000DF92EF92FF921F93CF93DF93CDB7DEB76A
:100470002E970FB6F894DEBF0FBECDBF46E0BE018B
:100480006F5F7F4F87EF0E948F01F981EA811B81A7
:100490008C8190E0B0E0A0E02CE0880F991FAA1FAB
:1004A000BB1F2A95D1F74D8150E070E060E034E049
:1004B000440F551F661F771F3A95D1F7842B952B54
:1004C000A62BB72B2E8122952F706C017D01C22A9D
:1004D00040918D0150918E0170E060E024E0B6956E
:1004E000A795979587952A95D1F74C015D01841AB8
:1004F000950AA60AB70A33E0F594E794D794C7940F
:100500003A95D1F7440F551F661F771FD701C601D3
:10051000841B950BA60BB70B9C01AD01A0918F011D
:10052000B09190010E94D6056B017C01BBE0F5946F
:10053000E794D794C794BA95D1F7A5019401C50162
:10054000B4010E9499059B01AC018CE0559547953B
:10055000379527958A95D1F7A0919101B091920195
:100560000E94D605DC01CB012EE0B595A7959795A5
:1005700087952A95D1F7C80ED91EEA1EFB1EA5E065
:10058000B0E0A70196010E94CB05DC01CB018058A9
:100590009F4FAF4FBF4F892F9A2FAB2FBB27A7FD80
:1005A000BA958093A7019093A801A093A901B09355
:1005B000AA01F594E794D794C7949AEFD91AE10861
:1005C000F1084601570152E0B594A7949794879497
:1005D0005A95D1F7A5019401C501B4010E9499056E
:1005E0006F83788789879A87A0919701B091980146
:1005F0009B01AC016DE055954795379527956A9518
:10060000D1F70E94D6054B015C0173E0B594A79425
:10061000979487947A95D1F7A0919501B09196011E
:10062000A70196010E94D6059B01AC0155954795FF
:1006300037952795280D391D4A1D5B1DB2E155954B
:10064000479537952795BA95D1F730584F4F5F4F5B
:10065000A0919301B09194010E94CB054B015C01E4
:100660008FE0B594A794979487948A95D1F78114D5
:100670009104A104B104D1F41092AB011092AC0129
:100680001092AD011092AE012E960FB6F894DEBF17
:100690000FBECDBFDF91CF911F91FF90EF90DF9004
:1006A000CF90BF90AF909F908F9008952F81388505
:1006B00049855A858BE055954795379527958A95B5
:1006C000D1F7A0919D01B0919E010E94D6056F8344
:1006D000788789879A87A0919B01B0919C01A70197
:1006E00096010E94D605DC01CB01880F991FAA1F35
:1006F000BB1F2F81388549855A85820F931FA41F00
:10070000B51F6C017D0132E0F594E794D794C7944E
:100710003A95D1F72E2F30E050E040E064E0220F10
:10072000331F441F551F6A95D1F712951F70212B57
:100730008F2F90E0B0E0A0E07CE0880F991FAA1F07
:10074000BB1F7A95D1F7282B392B4A2B5B2B809135
:10075000990190919A01092E000CAA0BBB0BDC01A8
:10076000992788278C0D9D1DAE1DBF1DFCE0B595FA
:10077000A79597958795FA95D1F7280F391F4A1FA6
:100780005B1FABECB3EF0E94D905805B9C4397FDE8
:1007900081C09B01AC01220F331F441F551FCA01AA
:1007A000B901A50194010E94A9052093AB013093E2
:1007B000AC014093AD015093AE018090AB0190909D
:1007C000AC01A090AD01B090AE01D501C40123E011
:1007D000B695A795979587952A95D1F79C01AD0178
:1007E000CD01B9010E9499059B01AC016DE05695C0
:1007F0004795379527956A95D1F7A091A301B091B8
:10080000A4010E94D6056B017C017CE0F594E7947D
:10081000D794C7947A95D1F7A5019401E2E0569553
:10082000479537952795EA95D1F7A091A101B09109
:10083000A2010E94D605DC01CB01FDE0B595A7958C
:1008400097958795FA95D1F7C80ED91EEA1EFB1E1B
:1008500080919F019091A001092E000CAA0BBB0B67
:100860008C0D9D1DAE1DBF1D6C017D01A4E0F59496
:10087000E794D794C794AA95D1F7C80CD91CEA1C61
:10088000FB1CC092AB01D092AC01E092AD01F092A2
:10089000AE01FACEA50194010E94A905220F331FD3
:1008A000441F551F82CFCF93DF9300D000D0CDB728
:1008B000DEB76091AB017091AC018091AD01909178
:1008C000AE010E94020720E836EE45EC57E469834A
:1008D0007A838B839C8369817A818B819C810E943E
:1008E0005A0621E03EED42E45EE369837A838B831E
:1008F0009C8369817A818B819C810E94FD079B0189
:10090000AC0160E070E080E89FE30E94ED052BE41D
:100910003AE34DEB57E369837A838B839C83698148
:100920007A818B819C810E945A0669837A838B83AA
:100930009C8369817A818B819C810F900F900F90AD
:100940000F90DF91CF9108951092B90088E48093C1
:10095000B800089594EA9093BC009091BC0097FF72
:10096000FCCF9091B900987F983011F0903199F4B4
:100970008093BB0084E88093BC008091BC0087FF1B
:10098000FCCF9091B900987F983119F081E09034B4
:1009900009F480E0089581E0089524EA34E844E908
:1009A0002093BC009091BC0097FFFCCF9091B900C0
:1009B000987F983011F0903199F78093BB00309375
:1009C000BC009091BC0097FFFCCF9091B900987F3C
:1009D000903211F0983539F44093BC009091BC00EE
:1009E00094FDFCCFDDCF08950C94AA0484E9809394
:1009F000BC008091BC0084FDFCCF08958093BB00B7
:100A000084E88093BC008091BC0087FFFCCF90916C
:100A1000B900987F81E0983209F480E0089584EC71
:100A20008093BC008091BC0087FFFCCF8091BB000D
:100A3000089584E88093BC008091BC0087FFFCCFC0
:100A40008091BB00089500D000D0CDB7DEB787E617
:100A500090E00E941501259A84E091E00E946401D3
:100A60000E94CB0178942D9A2FEF84E39CE02150D3
:100A700080409040E1F700C000002D982FEF81E109
:100A80009AE7215080409040E1F700C000000E94AA
:100A9000FC01482F50E070E060E08BE091E00E94A4
:100AA00094000E942B024091A7015091A8016091EF
:100AB000A9017091AA0182E191E00E949400409105
:100AC000AB015091AC016091AD017091AE0184E237
:100AD00091E00E9494000E94530420E030E048EC32
:100AE00052E469837A838B839C8369817A818B81C9
:100AF0009C810E94900769837A838B839C836981A0
:100B00007A818B819C810E94CC06AB01BC0186E37B
:100B100091E00E94940089E091E00E9464012FEF2F
:100B200089E698E1215080409040E1F700C0000044
:100B30009ACFDB018F939F930E94CB05BF91AF911A
:100B4000A29F800D911DA39F900DB29F900D112427
:100B50000895A1E21A2EAA1BBB1BFD010DC0AA1FFE
:100B6000BB1FEE1FFF1FA217B307E407F50720F016
:100B7000A21BB30BE40BF50B661F771F881F991F91
:100B80001A9469F760957095809590959B01AC01DA
:100B9000BD01CF0108950E94DE05A59F900DB49F71
:100BA000900DA49F800D911D11240895B7FF0C9402
:100BB000CB050E94CB05821B930B0895A29FB00129
:100BC000B39FC001A39F700D811D1124911DB29F81
:100BD000700D811D1124911D08955058BB27AA271F
:100BE0000E9405060C9456070E94480738F00E94A0
:100BF0004F0720F039F49F3F19F426F40C94450771
:100C00000EF4E095E7FB0C943F07E92F0E9467077D
:100C100058F3BA17620773078407950720F079F431
:100C2000A6F50C9489070EF4E0950B2EBA2FA02D93
:100C30000B01B90190010C01CA01A0011124FF2789
:100C4000591B99F0593F50F4503E68F11A16F04084
:100C5000A22F232F342F4427585FF3CF4695379583
:100C60002795A795F0405395C9F77EF41F16BA0B48
:100C7000620B730B840BBAF09150A1F0FF0FBB1FF6
:100C8000661F771F881FC2F70EC0BA0F621F731F3F
:100C9000841F48F4879577956795B795F7959E3F9C
:100CA00008F0B0CF9395880F08F09927EE0F97952D
:100CB000879508950E946E060C9456070E944F0770
:100CC00058F00E94480740F029F45F3F29F00C9447
:100CD0003F0751110C948A070C9445070E9467073F
:100CE00068F39923B1F3552391F3951B550BBB275B
:100CF000AA2762177307840738F09F5F5F4F220FA0
:100D0000331F441FAA1FA9F335D00E2E3AF0E0E896
:100D100032D091505040E695001CCAF72BD0FE2FE0
:100D200029D0660F771F881FBB1F26173707480774
:100D3000AB07B0E809F0BB0B802DBF01FF2793582C
:100D40005F4F3AF09E3F510578F00C943F070C94AA
:100D50008A075F3FE4F3983ED4F3869577956795CD
:100D6000B795F7959F5FC9F7880F911D9695879561
:100D700097F90895E1E0660F771F881FBB1F621780
:100D800073078407BA0720F0621B730B840BBA0B3E
:100D9000EE1F88F7E09508950E94D3066894B1117C
:100DA0000C948A0708950E946F0788F09F5798F067
:100DB000B92F9927B751B0F0E1F0660F771F881F60
:100DC000991F1AF0BA95C9F714C0B13091F00E947A
:100DD0008907B1E008950C948907672F782F882739
:100DE000B85F39F0B93FCCF3869577956795B395A1
:100DF000D9F73EF490958095709561957F4F8F4F10
:100E00009F4F0895E89409C097FB3EF49095809514
:100E1000709561957F4F8F4F9F4F9923A9F0F92FC0
:100E200096E9BB279395F695879577956795B7953E
:100E3000F111F8CFFAF4BB0F11F460FF1BC06F5F24
:100E40007F4F8F4F9F4F16C0882311F096E911C036
:100E5000772321F09EE8872F762F05C0662371F057
:100E600096E8862F70E060E02AF09A95660F771F6B
:100E7000881FDAF7880F9695879597F9089597F95F
:100E80009F6780E870E060E008959FEF80EC089530
:100E900000240A9416161706180609060895002459
:100EA0000A9412161306140605060895092E0394D3
:100EB000000C11F4882352F0BB0F40F4BF2B11F447
:100EC00060FF04C06F5F7F4F8F4F9F4F089557FDA6
:100ED0009058440F551F59F05F3F71F04795880FA8
:100EE00097FB991F61F09F3F79F08795089512163F
:100EF00013061406551FF2CF4695F1DF08C01616EB
:100F000017061806991FF1CF86957105610508949B
:100F10000895E894BB2766277727CB0197F90895B2
:100F20000E94A3070C9456070E94480738F00E94BD
:100F30004F0720F0952311F00C943F070C944507C0
:100F400011240C948A070E94670770F3959FC1F3E0
:100F5000950F50E0551F629FF001729FBB27F00D67
:100F6000B11D639FAA27F00DB11DAA1F649F6627BC
:100F7000B00DA11D661F829F2227B00DA11D621F0B
:100F8000739FB00DA11D621F839FA00D611D221FC5
:100F9000749F3327A00D611D231F849F600D211DA9
:100FA000822F762F6A2F11249F5750409AF0F1F02C
:100FB00088234AF0EE0FFF1FBB1F661F771F881F95
:100FC00091505040A9F79E3F510580F00C943F0787
:100FD0000C948A075F3FE4F3983ED4F386957795A7
:100FE0006795B795F795E7959F5FC1F7FE2B880F3B
:100FF000911D9695879597F90895FA01EE0FFF1FB9
:10100000309621053105A1F16115710561F4803833
:10101000BFE39B0749F168949038810561F08038FF
:10102000BFEF9B0741F099234AF5FF3FE1053105EA
:10103000210519F1E8940894E795D901AA2329F428
:10104000AB2FBE2FF85FD0F310C0FF5F70F4A695F2
:10105000E0F7F73950F019F0FF3A38F49F779F9393
:101060000DD00F9007FC9058089546F00C9445075A
:1010700060E070E080E89FE308954FE79F775F931B
:101080004F933F932F930E94F8082F913F914F91D8
:101090005F910E9490070C94550829F416F00C9467
:1010A0003F070C9489070C9445070E946F07A8F32B
:1010B0009638A0F707F80F92E8942BE33AEA48EB4A
:1010C0005FE70E94A6070F920F920F924DB75EB78F
:1010D0000F920E944009E8E6F0E00E9487084F91D5
:1010E0005F91EF91FF91E595EE1FFF1F49F0FE57CD
:1010F000E0684427EE0F441FFA95E1F74195550B40
:101100000E94BA080F9007FE0C94AE080895DF9372
:10111000CF931F930F93FF92EF92DF927B018C018D
:10112000689406C0DA2EEF010E94A307FE01E8943E
:10113000A5912591359145915591A6F3EF010E9416
:101140000506FE019701A801DA9469F7DF90EF9098
:10115000FF900F911F91CF91DF9108959B01AC01FA
:1011600060E070E080E89FE30C945A060C943F071F
:101170000C9474090E946F07D8F39923C9F3940F54
:10118000511DA3F39150504094F059F0882332F050
:10119000660F771F881F91505040C1F79E3F510541
:1011A0002CF7880F911D9695879597F908955F3FC5
:1011B000ACF0983E9CF0BB27869577956795B795E0
:1011C00008F4B1609395C1F7BB0F58F711F460FFB5
:1011D000E8CF6F5F7F4F8F4F9F4FE3CF0C948A070D
:1011E00016F00C9474090C94450768940C943F070E
:1011F0000E946F07A8F39923C1F3AEF3DF93CF9357
:101200001F930F93FF92C92FDD2788232AF0219780
:10121000660F771F881FDAF720E030E040E85FEBC9
:101220009FE3883920F0803E38F021968F770E9426
:10123000EE05E0E9F0E004C00E94EE05EDEBF0E021
:101240000E9487088B01BE01EC01FB2E6F577109CC
:101250007595771F880B990B0E94040728E132E7E8
:1012600041E35FE30E94A307AF2D9801AE01FF9019
:101270000F911F91CF91DF910E9405060C945607A4
:10128000FA01DC01AA0FBB1F9B01AC01BF5728F478
:10129000222733274427507820C0B75190F4AB2F32
:1012A0000024469537952795011CA395D2F300207D
:1012B00071F0220F331F441FB395DAF30ED00C9454
:1012C000ED0561307105A0E88A07B94630F49B014D
:1012D000AC016627772788279078309621F0208305
:1012E00031834283538308959F3F31F0915020F41E
:1012F000879577956795B795880F911D96958795F2
:1013000097F90895BB272A3051F4992342F4BDE29E
:1013100090958095709561957F4F8F4F9F4F0C945E
:101320009209BB27FA01A62F621771058105910565
:10133000330B30FB66F0AA27660F771F881F991FB3
:10134000AA1FA21710F0A21B63953850A9F7A05D41
:10135000AA3308F0A95DA19336F7B111B1931082B9
:10136000CA010C94B309DC01FC01672F719177234A
:10137000E1F7329704C07C916D9370836291AE1750
:0A138000BF07C8F30895F894FFCFEB
:10138A00203D200073746172740A0073746174756D
:10139A00730074656D70657261747572652078206A
:1013AA003130300070726573737572652078203140
:1013BA00303020202000616C74697475646520786F
:0813CA0020313030202020000A
:00000001FF
